{
  "contractName": "Seguro",
  "abi": [
    {
      "constant": true,
      "inputs": [],
      "name": "decimals",
      "outputs": [
        {
          "name": "",
          "type": "uint8"
        }
      ],
      "payable": false,
      "stateMutability": "view",
      "type": "function"
    },
    {
      "constant": true,
      "inputs": [
        {
          "name": "",
          "type": "uint256"
        }
      ],
      "name": "sinistros",
      "outputs": [
        {
          "name": "id",
          "type": "uint256"
        },
        {
          "name": "valorSinistro",
          "type": "uint256"
        }
      ],
      "payable": false,
      "stateMutability": "view",
      "type": "function"
    },
    {
      "inputs": [
        {
          "name": "benef",
          "type": "address"
        },
        {
          "name": "numeroApolice",
          "type": "uint256"
        },
        {
          "name": "valorDoBemSegurado",
          "type": "uint256"
        },
        {
          "name": "valorDoBem",
          "type": "uint256"
        },
        {
          "name": "valorDaFranquia",
          "type": "uint256"
        }
      ],
      "payable": false,
      "stateMutability": "nonpayable",
      "type": "constructor"
    },
    {
      "anonymous": false,
      "inputs": [
        {
          "indexed": false,
          "name": "",
          "type": "uint8"
        },
        {
          "indexed": false,
          "name": "valueEvento",
          "type": "uint256"
        }
      ],
      "name": "ChangeStatus",
      "type": "event"
    },
    {
      "constant": false,
      "inputs": [
        {
          "name": "idSinistro",
          "type": "uint256"
        },
        {
          "name": "valorDoSinistro",
          "type": "uint256"
        }
      ],
      "name": "addSinistro",
      "outputs": [],
      "payable": false,
      "stateMutability": "nonpayable",
      "type": "function"
    },
    {
      "constant": false,
      "inputs": [],
      "name": "liquidarContrato",
      "outputs": [],
      "payable": true,
      "stateMutability": "payable",
      "type": "function"
    },
    {
      "constant": false,
      "inputs": [],
      "name": "finalize",
      "outputs": [],
      "payable": false,
      "stateMutability": "nonpayable",
      "type": "function"
    },
    {
      "constant": true,
      "inputs": [],
      "name": "getStatus",
      "outputs": [
        {
          "name": "",
          "type": "uint256"
        }
      ],
      "payable": false,
      "stateMutability": "view",
      "type": "function"
    },
    {
      "constant": true,
      "inputs": [],
      "name": "getApoliceNumber",
      "outputs": [
        {
          "name": "",
          "type": "uint256"
        }
      ],
      "payable": false,
      "stateMutability": "view",
      "type": "function"
    },
    {
      "constant": true,
      "inputs": [],
      "name": "getApoliceSaldo",
      "outputs": [
        {
          "name": "",
          "type": "uint256"
        }
      ],
      "payable": false,
      "stateMutability": "view",
      "type": "function"
    },
    {
      "constant": true,
      "inputs": [],
      "name": "getApoliceSeguro",
      "outputs": [
        {
          "name": "",
          "type": "uint256"
        }
      ],
      "payable": false,
      "stateMutability": "view",
      "type": "function"
    },
    {
      "constant": true,
      "inputs": [],
      "name": "getApoliceFranquia",
      "outputs": [
        {
          "name": "",
          "type": "uint256"
        }
      ],
      "payable": false,
      "stateMutability": "view",
      "type": "function"
    },
    {
      "constant": true,
      "inputs": [],
      "name": "getApoliceDoBem",
      "outputs": [
        {
          "name": "",
          "type": "uint256"
        }
      ],
      "payable": false,
      "stateMutability": "view",
      "type": "function"
    },
    {
      "constant": true,
      "inputs": [],
      "name": "getApoliceDoBemSegurado",
      "outputs": [
        {
          "name": "",
          "type": "uint256"
        }
      ],
      "payable": false,
      "stateMutability": "view",
      "type": "function"
    },
    {
      "constant": true,
      "inputs": [],
      "name": "getOwner",
      "outputs": [
        {
          "name": "",
          "type": "address"
        }
      ],
      "payable": false,
      "stateMutability": "view",
      "type": "function"
    },
    {
      "constant": true,
      "inputs": [],
      "name": "getBeneficiario",
      "outputs": [
        {
          "name": "",
          "type": "address"
        }
      ],
      "payable": false,
      "stateMutability": "view",
      "type": "function"
    }
  ],
  "bytecode": "0x60606040526012600760146101000a81548160ff021916908360ff160217905550341561002b57600080fd5b60405160a080610a1083398101604052808051906020019091908051906020019091908051906020019091908051906020019091908051906020019091905050600033600760006101000a81548173ffffffffffffffffffffffffffffffffffffffff021916908373ffffffffffffffffffffffffffffffffffffffff16021790555083905060c0604051908101604052808773ffffffffffffffffffffffffffffffffffffffff16815260200186815260200185815260200184815260200182815260200183815250600160008201518160000160006101000a81548173ffffffffffffffffffffffffffffffffffffffff021916908373ffffffffffffffffffffffffffffffffffffffff1602179055506020820151816001015560408201518160020155606082015181600301556080820151816004015560a082015181600501559050507fc5411a5d2c1e956f71d2ac138fd1ac43b63acaa4c0089074e7e5a7f5aa456eac600085604051808360038111156101a757fe5b60ff1681526020018281526020019250505060405180910390a150505050505061083a806101d66000396000f3006060604052600436106100d0576000357c0100000000000000000000000000000000000000000000000000000000900463ffffffff168063070858b8146100d55780632a6b820e1461012a578063313ce567146101345780634bb278f3146101635780634e69d5601461017857806353193656146101a15780635bd6a149146101ca57806363c4daa6146101f3578063893d20e81461021c5780638cf80b001461027157806395f7b8071461029a5780639e71ddb9146102c3578063be866aaa146102ef578063f72a9b0a1461032d575b600080fd5b34156100e057600080fd5b6100e8610356565b604051808273ffffffffffffffffffffffffffffffffffffffff1673ffffffffffffffffffffffffffffffffffffffff16815260200191505060405180910390f35b610132610383565b005b341561013f57600080fd5b61014761045f565b604051808260ff1660ff16815260200191505060405180910390f35b341561016e57600080fd5b610176610472565b005b341561018357600080fd5b61018b610588565b6040518082815260200191505060405180910390f35b34156101ac57600080fd5b6101b46105a9565b6040518082815260200191505060405180910390f35b34156101d557600080fd5b6101dd6105b6565b6040518082815260200191505060405180910390f35b34156101fe57600080fd5b6102066105c3565b6040518082815260200191505060405180910390f35b341561022757600080fd5b61022f6105d0565b604051808273ffffffffffffffffffffffffffffffffffffffff1673ffffffffffffffffffffffffffffffffffffffff16815260200191505060405180910390f35b341561027c57600080fd5b6102846105fa565b6040518082815260200191505060405180910390f35b34156102a557600080fd5b6102ad610606565b6040518082815260200191505060405180910390f35b34156102ce57600080fd5b6102ed6004808035906020019091908035906020019091905050610613565b005b34156102fa57600080fd5b610310600480803590602001909190505061076d565b604051808381526020018281526020019250505060405180910390f35b341561033857600080fd5b6103406107a0565b6040518082815260200191505060405180910390f35b6000600160000160009054906101000a900473ffffffffffffffffffffffffffffffffffffffff16905090565b600760009054906101000a900473ffffffffffffffffffffffffffffffffffffffff1673ffffffffffffffffffffffffffffffffffffffff163373ffffffffffffffffffffffffffffffffffffffff16141561045d5760016000806101000a81548160ff021916908360038111156103f757fe5b02179055507fc5411a5d2c1e956f71d2ac138fd1ac43b63acaa4c0089074e7e5a7f5aa456eac6000809054906101000a900460ff166001600201546040518083600381111561044257fe5b60ff1681526020018281526020019250505060405180910390a15b565b600760149054906101000a900460ff1681565b600760009054906101000a900473ffffffffffffffffffffffffffffffffffffffff1673ffffffffffffffffffffffffffffffffffffffff163373ffffffffffffffffffffffffffffffffffffffff1614156105865760026000806101000a81548160ff021916908360038111156104e657fe5b02179055507fc5411a5d2c1e956f71d2ac138fd1ac43b63acaa4c0089074e7e5a7f5aa456eac6000809054906101000a900460ff166001600201546040518083600381111561053157fe5b60ff1681526020018281526020019250505060405180910390a1600760009054906101000a900473ffffffffffffffffffffffffffffffffffffffff1673ffffffffffffffffffffffffffffffffffffffff16ff5b565b60008060009054906101000a900460ff1660038111156105a457fe5b905090565b6000600160020154905090565b6000600160020154905090565b6000600160050154905090565b6000600760009054906101000a900473ffffffffffffffffffffffffffffffffffffffff16905090565b60006001800154905090565b6000600160040154905090565b600760009054906101000a900473ffffffffffffffffffffffffffffffffffffffff1673ffffffffffffffffffffffffffffffffffffffff163373ffffffffffffffffffffffffffffffffffffffff1614156107695760016002015481600160040154011115151561068457600080fd5b6008805480600101828161069891906107ad565b9160005260206000209060020201600060408051908101604052808681526020018581525090919091506000820151816000015560208201518160010155505050806001600401540360016004018190555060036000806101000a81548160ff0219169083600381111561070857fe5b02179055507fc5411a5d2c1e956f71d2ac138fd1ac43b63acaa4c0089074e7e5a7f5aa456eac6000809054906101000a900460ff16826040518083600381111561074e57fe5b60ff1681526020018281526020019250505060405180910390a15b5050565b60088181548110151561077c57fe5b90600052602060002090600202016000915090508060000154908060010154905082565b6000600160030154905090565b8154818355818115116107da576002028160020283600052602060002091820191016107d991906107df565b5b505050565b61080b91905b80821115610807576000808201600090556001820160009055506002016107e5565b5090565b905600a165627a7a72305820d9248e9feffcfe689c6e4e3b92832b5dfe54ff2ffcaf6678e4649889e9a458260029",
  "source": "pragma solidity ^0.4.17;\n\ncontract Seguro {\n\n    enum StatusApolice { VIGENTE, LIQUIDADO, INATIVO, SINISTRO }\n    StatusApolice status;\n    StatusApolice constant defaultStatus = StatusApolice.VIGENTE;\n    Apolice apolice;\n    address owner;\n    uint8 public decimals = 18;\n\n    event ChangeStatus(StatusApolice, uint256 valueEvento);\n\n    struct Cobertura {\n        uint id;\n        uint256 valorCoberto;\n    }\n\n    struct Sinistro {\n        uint id;\n        uint256 valorSinistro;\n    }    \n\n    struct Apolice {\n        address beneficiario;\n        uint256 apoliceNumber;\n        uint256 valorBemSegurado;\n        uint256 valorBem;\n        uint256 valorSaldo;\n        uint256 valorFranquia;\n\n        //mapping (uint => Cobertura) coberturas;\n    }\n\n    Sinistro[] public sinistros;\n\n\n    /*\n    * Funcao construtora, inicializa a apolice, seta o owner do contrato\n    * O valor da variavel valorSaldo eh identico ao valor do seguro neste momento, ou seja\n    * neste momento o cliente tem o saldo completo\n    *apolice = Apolice(benef, numeroApolice, valorDoBemSegurado, valorDoBem, valorDoBemSegurado, valorDaFranquia);\n    */\n    function Seguro(address benef, uint256 numeroApolice, uint256 valorDoBemSegurado, uint256 valorDoBem, uint256 valorDaFranquia) public\n    {\n        owner = msg.sender;\n        uint256 valorSaldoApolice = valorDoBemSegurado;\n        apolice = Apolice({beneficiario: benef, apoliceNumber: numeroApolice, valorBemSegurado: valorDoBemSegurado, valorBem: valorDoBem, valorSaldo: valorSaldoApolice, valorFranquia:valorDaFranquia});\n        ChangeStatus(defaultStatus, valorDoBemSegurado);\n    }\n\n    function addSinistro(uint idSinistro, uint256 valorDoSinistro) public \n    {\n        if(msg.sender == owner){\n            require(apolice.valorSaldo + valorDoSinistro <= apolice.valorBemSegurado);\n            sinistros.push(Sinistro({id: idSinistro, valorSinistro:valorDoSinistro}));\n            apolice.valorSaldo = apolice.valorSaldo - valorDoSinistro;\n            status = StatusApolice.SINISTRO;\n            ChangeStatus(status, valorDoSinistro);\n        }\n    }\n\n    /*\n    * Funcao chamada quando o contrato expira\n    */\n    function liquidarContrato() public payable\n    {\n        if(msg.sender == owner){\n            status = StatusApolice.LIQUIDADO;\n            ChangeStatus(status, apolice.valorBemSegurado);\n\n        }\n    }\n\n    /*\n    * a funcao suicide nao eh mais utilizada\n    * EIP 6 - Recomenda a nao utilizacao do termo suicide, e sua troca por selfdestruct\n    */\n    function finalize() public {\n        if(msg.sender == owner){\n            status = StatusApolice.INATIVO;\n            ChangeStatus(status, apolice.valorBemSegurado);\n            selfdestruct(owner);\n        }\n    }\n\n    function getStatus() public view returns (uint)\n    {\n        return uint(status);\n    }\n\n    function getApoliceNumber() public view returns (uint256){\n        return apolice.apoliceNumber;\n    }\n\n    function getApoliceSaldo() public view returns (uint256){\n        return apolice.valorSaldo;\n    }    \n\n    function getApoliceSeguro() public view returns (uint256){\n        return apolice.valorBemSegurado;\n    }\n\n    function getApoliceFranquia() public view returns (uint256){\n        return apolice.valorFranquia;\n    }\n\n    function getApoliceDoBem() public view returns (uint256){\n        return apolice.valorBem;\n    }    \n\n    function getApoliceDoBemSegurado() public view returns (uint256){\n        return apolice.valorBemSegurado;\n    }\n\n    function getOwner() public view returns (address){\n        return owner;\n    }\n\n    function getBeneficiario() public view returns (address){\n        return apolice.beneficiario;\n    }\n\n}",
  "sourcePath": "/home/asimas/projetos/88segurosContratos/smart_contracts/ethereum/contracts/Seguro.sol",
  "compiler": {
    "name": "solc",
    "version": "0.4.19+commit.c4cbbb05.Emscripten.clang"
  },
  "schemaVersion": "1.0.1",
  "updatedAt": "2018-02-21T21:54:54.672Z"
}